S00D00005461736B332E7372656351
S11300000C9434000C9484000C9449000C94490022
S11300100C9449000C9449000C9449000C94490038
S11300200C9449000C9449000C9449000C94490028
S11300300C9449000C9449000C9449000C94490018
S11300400C9449000C9449000C9449000C94490008
S11300500C9449000C9449000C9449000C944900F8
S11300600C9449000C94490011241FBECFEFD8E032
S1130070DEBFCDBF11E0A0E0B1E0E2E4F4E002C0F5
S113008005900D92A430B107D9F70E944B000C944F
S11300901F020C94000080EE8AB98FE384B981E0DA
S11300A08DBB83E0809369007894FFCF8EEE95E852
S11300B090938900809388001092800085E080935B
S11300C08100B19BFECF10928100109285001092A6
S11300D0840086B3826086BB089588E893E1909398
S11300E08900809388001092800085E080938100CD
S11300F0B19BFECF10928100109285001092840073
S113010086B3826086BB08951F920F920FB60F923A
S113011011240F931F932F933F934F935F936F93E8
S11301207F938F939F93AF93BF93CF93DF93EF937B
S1130130FF9305E010E013C08BB1C1E0D0E0002EC6
S113014002C0CC0FDD1F0A94E2F78C2B8BB90E94FE
S11301506D008BB1C095C823CBB90F5F1F4F08301A
S1130160110554F300E010E013C085B1C1E0D0E004
S1130170002E02C0CC0FDD1F0A94E2F78C2B85B948
S11301800E946D0085B1C095C823C5B90F5F1F4F8C
S11301900630110554F3C0E0D0E011C08BB1806E7D
S11301A08BB985B18F6385B90E946D0085B1807C60
S11301B085B98BB18F718BB90E946D002196C330C4
S11301C0D10564F30E94AC0166E070E00E9438013E
S11301D0019683309105B1F034F48130910551F0EA
S11301E0029761F02AC085309105D1F094F006970A
S11301F0F1F023C085B1826085B91FC085B18560E7
S113020085B91BC08BB180628BB985B1826285B917
S113021014C08BB1806A8BB985B1886285B90DC071
S11302208BB1806A8BB985B18A6285B906C08BB1FE
S1130230806E8BB985B1886385B90E9456000E948F
S113024056001BB815B8FF91EF91DF91CF91BF9184
S1130250AF919F918F917F916F915F914F913F915A
S11302602F911F910F910F900FBE0F901F90189513
S113027097FB072E16F4009407D077FD09D00E944F
S11302804C0107FC05D03EF4909581959F4F08954D
S1130290709561957F4F0895AA1BBB1B51E107C060
S11302A0AA1FBB1FA617B70710F0A61BB70B881F02
S11302B0991F5A95A9F780959095BC01CD01089591
S11302C08F929F92AF92BF92CF92DF92EF92FF9262
S11302D0CF93DF93EC01688179818A819B816115D9
S11302E071058105910521F464E279ED8BE597E0D0
S11302F02DE133EF41E050E00E94BC0149015A0175
S11303009B01AC01A7EAB1E40E94DB016B017C0113
S1130310ACEEB4EFA50194010E94E901DC01CB012C
S11303208C0D9D1DAE1DBF1DB7FF03C00197A10914
S1130330B04888839983AA83BB839F77DF91CF9149
S1130340FF90EF90DF90CF90BF90AF909F908F90F1
S113035008950E946001089580E091E00E94600188
S11303600895A0E0B0E08093000190930101A09370
S11303700201B09303010895052E97FB1EF4009427
S11303800E94D30157FD07D00E94EE0107FC03D061
S11303904EF40C94D30150954095309521953F4FE0
S11303A04F4F5F4F089590958095709561957F4F5D
S11303B08F4F9F4F08950E941002A59F900DB49FE8
S11303C0900DA49F800D911D11240895B7FF0C94E6
S11303D0DB010E94DB01821B930B0895A1E21A2E1C
S11303E0AA1BBB1BFD010DC0AA1FBB1FEE1FFF1FD5
S11303F0A217B307E407F50720F0A21BB30BE40B25
S1130400F50B661F771F881F991F1A9469F760956B
S11304107095809590959B01AC01BD01CF01089525
S1130420A29FB001B39FC001A39F700D811D112431
S1130430911DB29F700D811D1124911D0895F89492
S1050440FFCFE8
S107044201000000B1
S9030000FC
