S00D00005461736B322E7372656352
S11300000C9434000C9460000C943E000C943E005C
S11300100C943E000C943E000C943E000C943E0064
S11300200C943E000C943E000C943E000C943E0054
S11300300C943E000C943E000C943E000C943E0044
S11300400C943E000C943E000C943E000C943E0034
S11300500C943E000C943E000C943E000C943E0024
S11300600C943E000C943E0011241FBECFEFD8E048
S1130070DEBFCDBF0E9440000C949A000C94000097
S11300808CE184B981E08DBB83E08093690078942E
S1130090FFCF8EEE95E890938900809388001092AC
S11300A0800085E080938100B19BFECF1092810097
S11300B0109285001092840086B3826086BB0895F6
S11300C01F920F920FB60F9211242F933F934F93C9
S11300D05F936F937F938F939F93AF93BF93EF93AC
S11300E0FF9385B1846085B90E94490085B18B7FF7
S11300F085B985B1886085B90E94490085B1877F3B
S113010085B985B1806185B90E94490085B18F7E2A
S113011085B9FF91EF91BF91AF919F918F917F919D
S11301206F915F914F913F912F910F900FBE0F9060
S10B01301F901895F894FFCF0D
S9030000FC
