:020000020000FC
:100000002EE43DE14DE00E9421000E9426000E9466
:1000100031000E9437000E9434000E9437000E9485
:100020002E000E9437000E9434000E9437000E9478
:100030002B000E9437000E9434000E9437000C946D
:1000400003003CE134B980E085B9089503B1017043
:100050000130E1F7089500E103B9089508E003B91C
:10006000089504E003B9089580E085B908954A959C
:10007000F1F73A95E1F72A95D1F700002EE43DE13A
:040080004DE00895B2
:00000001FF
